:100000000C94A7000C94C4000C94C4000C94C4007D
:100010000C94C4000C94C4000C94C4000C94C40050
:100020000C94C4000C94C4000C94C4000C94C40040
:100030000C94C4000C94C4000C94C4000C94C40030
:100040000C94C4000C94C4000C94C4000C94C40020
:100050000C94C40000407A10F35A00A0724E1809A4
:100060000010A5D4E80000E87648170000E40B541F
:10007000020000CA9A3B000000E1F50500008096EE
:100080009800000040420F000000A0860100000020
:10009000102700000000E8030000000064000000DA
:1000A00000000A00000000000100000000002C76A3
:1000B000D888DC674F0823DFC1DFAE59E1B1B796BE
:1000C000E5E3E453C63AE651997696E8E6C284261B
:1000D000EB898C9B62ED407C6FFCEFBC9C9F40F2F7
:1000E000BAA56FA5F490055A2AF75C936B6CF96773
:1000F0006DC11BFCE0E40D47FEF520E6B500D0ED38
:10010000902E0300943577050080841E080000209F
:100110004E0A000000C80C333333330F986E12833D
:100120001141EF8D2114893BE65516CFFEE6DB1811
:10013000D1844B381BF77C1D901DA4BBE4242032D6
:1001400084725E228100C9F124ECA1E53D271124CF
:100150001FBECFE5D8E0DEBFCDBF14E0A0E6B0E023
:10016000E6E6FEE102C005900D92AC3AB107D9F780
:1001700024E0ACEAB4E001C01D92AF3DB207E1F764
:100180000E9494040C94310F0C9400002AB1286151
:100190002AB920B5266820BDDC01CB01880F991F44
:1001A000AA1FBB1F880F991FAA1FBB1F9C01AD016F
:1001B000220F331F441F551F220F331F441F551F8B
:1001C00060E074E284EF90E00E94D3098FEF820F29
:1001D00089B9DA01C9010197A109B109892F9A2FBB
:1001E000AB2FBB2780BD08955F9BFECF8CB10895D8
:1001F0008CB95D9BFECF08950F931F93CF93DF9330
:100200008C01C0E0D0E003C00E94F8002196F80104
:10021000EC0FFD1F80818111F7CFDF91CF911F91EE
:100220000F91089584B3836084BB8EB58F7E8EBD9D
:100230008EB588608EBD8FB583608FBD8FB58068A9
:100240008FBD8FB58F7B8FBD8EB583608EBD8EB514
:100250008B7F8EBD81B3806281BB20E032E03BBDED
:100260002ABD84B38C6084BB8FB580628FBD8FB58F
:100270008F7E8FBD81B3806181BB39BD28BD08955C
:1002800085B3816085BB089585B3826085BB089581
:1002900085B3846085BB089585B38E7F85BB85B3A8
:1002A0008D7F85BB85B38B7F85BB08952FEF89E656
:1002B00098E1215080409040E1F700C0000080E6C6
:1002C00090E00E94FC0082E890E00E94FC0080EC3C
:1002D00090E00E94FC002FEF89E698E121508040D9
:1002E0009040E1F700C0000008952FEF89E698E103
:1002F000215080409040E1F700C000008CE191E087
:100300000E94FC002FEF89E698E121508040904048
:10031000E1F700C0000008952FEF89E698E1215031
:1003200080409040E1F700C000008AE491E00E9424
:10033000FC002FEF89E698E1215080409040E1F7E2
:1003400000C00000089583E891E00E94FC00089539
:1003500081B3886081BB6091DB047091DC04809183
:10036000DD049091DE0420E030E040E252E40E949F
:100370000708882344F482B3886082BB89EF91E048
:100380000E94FC00089582B3877F82BB81E192E0E6
:100390000E94FC0008950F931F9380E00E942A069C
:1003A000BC01990F880B990B0E94B60826EF38E222
:1003B0004CE950E40E94660920E030E040E251E45C
:1003C0000E940C086093C1047093C2048093C3041C
:1003D0009093C4040E947E087F936F938DE292E015
:1003E0009F938F9382EB94E09F938F930E94150AC3
:1003F00082EB94E00E94FC002FEF83ED90E321500C
:1004000080409040E1F700C000000E940F0680E4A9
:1004100092E00E94FC000E94B7050E94F90581E568
:1004200092E00E94FC000E94A1050E941506BC01FA
:10043000990F880B990B0E94B60820E030E048EC39
:1004400052E40E94660920E030EC4FE754E40E9439
:100450000C086093DB047093DC048093DD049093BC
:10046000DE0405EC14E022E043E00E94F509F80107
:1004700001900020E9F7319785E29DE09183808328
:100480008AE090E09383828380E692E00E94FC0001
:10049000C8010E94FC000E94A8010E9426078093C8
:1004A000BD049093BE048093AC049093AD049F93DD
:1004B0008F938AE692E09F938F9381ED94E09F93D0
:1004C0008F930E94150A81ED94E00E94FC002FEFAB
:1004D00083ED90E3215080409040E1F700C00000A0
:1004E0008DB79EB70C960FB6F8949EBF0FBE8DBF0A
:1004F0001F910F9108958BE792E00E94FC000E94EB
:10050000A3010E9412010E94F4008093BC0488336E
:1005100039F484E992E00E94FC000E944001F3CF8C
:10052000823339F488EA92E00E94FC000E94440180
:10053000EACF853349F48DEB92E00E94FC000E94E3
:100540004C010E94F905DFCF863339F48FEC92E03D
:100550000E94FC000E94E305D6CF843339F48DED70
:1005600092E00E94FC000E94CD05CDCF803329F49B
:100570008AEE92E00E94FC00089587E093E00E94DA
:10058000FC000E94A301BFCF87B38E7F87BBB69BC1
:1005900003C080E090E0089581E090E0089587B383
:1005A000806887BB88B3806888BB2FEF83ED90E3BA
:1005B000215080409040E1F700C0000088B38F7761
:1005C00088BB0895CF9384B3806F84BB8AE193E0A6
:1005D0000E94FC00C0E8C5BB2FEF82E597E02150E8
:1005E00080409040E1F700C0000080E185BB2FEF24
:1005F00087EA91E6215080409040E1F700C000007A
:100600008FE293E00E94FC00C5BB2FEF82E597E0EC
:10061000215080409040E1F700C0000080E285BB9F
:100620002FEF87EA91E6215080409040E1F700C02B
:100630000000CF91089584E992E00E94FC000E949E
:1006400012010E94400180E090E00AC02FE73FE1E4
:100650004AE1215030404040E1F700C000000196DF
:100660002091B0043091B104821793077CF38DEB95
:1006700092E00E94FC000E944C018FEF97EA21E675
:10068000815090402040E1F700C000002091BD045F
:100690003091BE048091AC049091AD048217930711
:1006A000A4F184E493E00E94FC000E9412010E94E5
:1006B000480180E090E00AC03FEF42EF26E1315070
:1006C00040402040E1F700C0000001962091AE04B8
:1006D0003091AF04821793077CF38BE693E00E947E
:1006E000FC000E944C013FEF47EA81E63150404058
:1006F0008040E1F700C0000080E893E00E94FC0029
:100700000E94E20281E090E0089580E090E0089588
:100710000E94120184E993E00E94FC008DEB92E0BC
:100720000E94FC000E944C012FEF83ED90E32150CA
:1007300080409040E1F700C0000089EA93E00E9409
:10074000FC000E94E3052FEF83ED90E321508040F1
:100750009040E1F700C0000084E992E00E94FC00B4
:100760000E9440012FEF87EA91E62150804090409F
:10077000E1F700C000008DEB92E00E94FC000E94B7
:100780004C012FEF83ED90E3215080409040E1F742
:1007900000C000000E94F9052FEF83ED90E3215087
:1007A00080409040E1F700C0000089EB93E00E9498
:1007B000FC000E94CD052FEF83ED90E32150804097
:1007C0009040E1F700C0000084E992E00E94FC0044
:1007D0000E9440012FEF87EA91E62150804090402F
:1007E000E1F700C0000088EC93E00E94FC000E944A
:1007F0004C012FEF83ED90E3215080409040E1F7D2
:1008000000C000000E94F9052FEF83ED90E3215016
:1008100080409040E1F700C0000008950E9412015E
:1008200084E993E00E94FC008DEB92E00E94FC00C2
:100830000E944C012FEF83ED90E3215080409040C7
:10084000E1F700C0000089EB93E00E94FC000E94E9
:10085000CD052FEF83ED90E3215080409040E1F7EC
:1008600000C0000084E992E00E94FC000E94400168
:100870002FEF87EA91E6215080409040E1F700C0D9
:1008800000008DEB92E00E94FC000E944C012FEFD3
:1008900083ED90E3215080409040E1F700C00000DC
:1008A0000E94F9052FEF83ED90E3215080409040A6
:1008B000E1F700C0000089EA93E00E94FC000E947A
:1008C000E3052FEF83ED90E3215080409040E1F766
:1008D00000C0000084E992E00E94FC000E944001F8
:1008E0002FEF87EA91E6215080409040E1F700C069
:1008F000000088EC93E00E94FC000E944C012FEF66
:1009000083ED90E3215080409040E1F700C000006B
:100910000E94F9052FEF83ED90E321508040904035
:10092000E1F700C0000008950E94220660E875E229
:1009300080E090E00E94C6000E949A050E94560145
:100940000E94F4008093BC048133A1F40E947501DD
:100950000E94F40090E09C01205331093093B104CF
:100960002093B004C197059748F38CED93E00E9463
:10097000FC00ECCF8233A1F40E948C010E94F400B1
:1009800090E09C01205331093093AF042093AE04D2
:10099000C197059798F28CED93E00E94FC00ECCF94
:1009A000833319F40E94CB01C9CF843309F0B8C056
:1009B0002091BD043091BE048091AC049091AD04AF
:1009C000821793070CF447C0892B09F444C00E9496
:1009D000C402892B09F43FC08091AE049091AF040A
:1009E000892BC9F18091B0049091B104892B99F1C0
:1009F0008FEE93E00E94FC002EC00E943E06909372
:100A0000C0048093BF040E94B2069093D0048093E8
:100A1000CF048433910564F02091BF043091C00469
:100A2000243331052CF00E941B03892B71F431C053
:100A3000C4971CF40E94880308C08091BF04909161
:100A4000C004C49714F40E940E040E9426079093D9
:100A5000BE048093BD042091BD043091BE048091FA
:100A6000AC049091AD04821793079CF0892B89F018
:100A70000E94C402892B69F08091AE049091AF046A
:100A8000892B39F08091B0049091B104892B09F041
:100A9000B4CF0E944C010E94C402892B31F486E03D
:100AA00094E00E94FC000E94CF028091AC049091DF
:100AB000AD04892B21F481E294E00E94FC00809136
:100AC000AE049091AF04892B21F482E494E00E945B
:100AD000FC008091B0049091B104892B21F48BE546
:100AE00094E00E94FC0089ED93E00E94FC002091BC
:100AF000BD043091BE048091AC049091AD04821786
:100B0000930724F48FE794E00E94FC002FEF87EA1C
:100B100091E6215080409040E1F700C000000ECFE8
:100B2000853319F40E947B0209CF8CED93E00E947B
:100B3000FC0004CF81B3806481BB81B3806881BB3A
:100B4000089582B3806482BB8FE39FE10197F1F740
:100B500000C0000082B38F7B82BB9FEF27EA81E653
:100B6000915020408040E1F700C00000089582B31A
:100B7000806482BB8FE99FE00197F1F700C000001D
:100B800082B38F7B82BB9FEF27EA81E691502040A2
:100B90008040E1F700C00000089582B3806882BB06
:100BA0008FE99FE00197F1F700C0000082B38F77D3
:100BB00082BB9FEF27EA81E6915020408040E1F719
:100BC00000C00000089582B3806882BB8FE39FE17C
:100BD0000197F1F700C0000082B38F7782BB9FEFCF
:100BE00027EA81E6915020408040E1F700C00000F4
:100BF000089582B3806882BB8FE697E10197F1F791
:100C000000C0000082B38F7782BB9FEF27EA81E6A6
:100C1000915020408040E1F700C0000008958AB361
:100C20008D7F8ABB87E886B9089581E487B986B14C
:100C3000806486B9349BFECF86B1806186B984B169
:100C400095B108958AB38E7F8ABB87E886B980E420
:100C500087B908958770806487B986B1806486B942
:100C6000349BFECF86B1806186B98FE99FE0019702
:100C7000F1F700C0000084B195B1089587B3806298
:100C800087BB88B3806288BB20E52A95F1F788B3DB
:100C90008F7D88BB80E090E0DC0105C0B4990AC07C
:100CA0000196A11DB11D803C47E2940749E0A407CD
:100CB000B105A0F3803C9742A940B10509F449C0B1
:100CC0001FBC82E08EBD1DBC1CBC80E090E0DC013E
:100CD0000AC0B49B0FC02CB53DB521363A4E50F436
:100CE0000196A11DB11D803C27E2920729E0A207D1
:100CF000B10578F3803C9742A940B10569F16CB524
:100D00007DB5CB01A0E0B0E01EBC81362AEE920793
:100D1000A105B10520F5BC01CD0196958795779584
:100D200067950E94B40826E933E44BE05DE30E9436
:100D3000660920E030E040E05FE30E94660920E0C1
:100D400030E040E85FE30E949B070E947E08CB01F1
:100D5000089580E090E0089580E090E0089580E0BC
:100D600090E0089587B3826087BB88B3826088BBB8
:100D700020E52A95F1F788B38D7F88BB80E090E06D
:100D8000DC0105C0B0990AC00196A11DB11D803CCF
:100D900047E2940749E0A407B105A0F3803C9742DD
:100DA000A940B10509F449C01FBC82E08EBD1DBC3D
:100DB0001CBC80E090E0DC010AC0B09B0FC02CB5E9
:100DC0003DB521363A4E50F40196A11DB11D803C2F
:100DD00027E2920729E0A207B10578F3803C974209
:100DE000A940B10569F16CB57DB5CB01A0E0B0E0DB
:100DF0001EBC81362AEE9207A105B10520F5BC0183
:100E0000CD0196958795779567950E94B40826E958
:100E100033E44BE05DE30E94660920E030E040E00F
:100E20005FE30E94660920E030E040E85FE30E9453
:100E30009B070E947E08CB01089580E090E0089512
:100E400080E090E0089580E090E0089587B38860A6
:100E500087BB88B3886088BB20E52A95F1F788B303
:100E6000877F88BB80E090E0DC0105C0B2990AC0B2
:100E70000196A11DB11D803C47E2940749E0A407FB
:100E8000B105A0F3803C9742A940B10509F449C0DF
:100E90001FBC82E08EBD1DBC1CBC80E090E0DC016C
:100EA0000AC0B29B0FC02CB53DB521363A4E50F466
:100EB0000196A11DB11D803C27E2920729E0A207FF
:100EC000B10578F3803C9742A940B10569F16CB552
:100ED0007DB5CB01A0E0B0E01EBC81362AEE9207C2
:100EE000A105B10520F5BC01CD01969587957795B3
:100EF00067950E94B40826E933E44BE05DE30E9465
:100F0000660920E030E040E05FE30E94660920E0EF
:100F100030E040E85FE30E949B070E947E08CB011F
:100F2000089580E090E0089580E090E0089580E0EA
:100F300090E008955058BB27AA270E94B2070C944E
:100F40002C090E941E0938F00E94250920F039F46E
:100F50009F3F19F426F40C941B090EF4E095E7FB6F
:100F60000C941509E92F0E943D0958F3BA1762073E
:100F700073078407950720F079F4A6F50C945F09B0
:100F80000EF4E0950B2EBA2FA02D0B01B9019001A4
:100F90000C01CA01A0011124FF27591B99F0593FE8
:100FA00050F4503E68F11A16F040A22F232F342F30
:100FB0004427585FF3CF469537952795A795F0407E
:100FC0005395C9F77EF41F16BA0B620B730B840B93
:100FD000BAF09150A1F0FF0FBB1F661F771F881F4B
:100FE000C2F70EC0BA0F621F731F841F48F48795A3
:100FF00077956795B795F7959E3F08F0B0CF939595
:10100000880F08F09927EE0F9795879508950E940D
:10101000F10808F481E008950E9420080C942C093E
:101020000E94250958F00E941E0940F029F45F3FF4
:1010300029F00C94150951110C9460090C941B09AA
:101040000E943D0968F39923B1F3552391F3951B51
:10105000550BBB27AA2762177307840738F09F5FD9
:101060005F4F220F331F441FAA1FA9F335D00E2E46
:101070003AF0E0E832D091505040E695001CCAF7B3
:101080002BD0FE2F29D0660F771F881FBB1F261776
:1010900037074807AB07B0E809F0BB0B802DBF014D
:1010A000FF2793585F4F3AF09E3F510578F00C941C
:1010B00015090C9460095F3FE4F3983ED4F38695DC
:1010C00077956795B795F7959F5FC9F7880F911D3D
:1010D0009695879597F90895E1E0660F771F881F29
:1010E000BB1F621773078407BA0720F0621B730BDC
:1010F000840BBA0BEE1F88F7E09508950E948508CF
:101100006894B1110C94600908950E94450988F013
:101110009F5798F0B92F9927B751B0F0E1F0660FBB
:10112000771F881F991F1AF0BA95C9F714C0B130FC
:1011300091F00E945F09B1E008950C945F09672F58
:10114000782F8827B85F39F0B93FCCF3869577952B
:101150006795B395D9F73EF4909580957095619514
:101160007F4F8F4F9F4F0895E89409C097FB3EF43F
:1011700090958095709561957F4F8F4F9F4F9923E4
:10118000A9F0F92F96E9BB279395F6958795779562
:101190006795B795F111F8CFFAF4BB0F11F460FF22
:1011A0001BC06F5F7F4F8F4F9F4F16C0882311F07A
:1011B00096E911C0772321F09EE8872F762F05C08E
:1011C000662371F096E8862F70E060E02AF09A9529
:1011D000660F771F881FDAF7880F9695879597F91E
:1011E0000895990F0008550FAA0BE0E8FEEF1616B8
:1011F0001706E807F907C0F012161306E407F5070B
:1012000098F0621B730B840B950B39F40A2661F07E
:10121000232B242B252B21F408950A2609F4A14021
:10122000A6958FEF811D811D089597F99F6780E82E
:1012300070E060E008959FEF80EC089500240A9428
:101240001616170618060906089500240A941216A1
:101250001306140605060895092E0394000C11F4D4
:10126000882352F0BB0F40F4BF2B11F460FF04C081
:101270006F5F7F4F8F4F9F4F089557FD9058440FDA
:10128000551F59F05F3F71F04795880F97FB991FE5
:1012900061F09F3F79F087950895121613061406A2
:1012A000551FF2CF4695F1DF08C01616170618062F
:1012B000991FF1CF86957105610508940895E8940A
:1012C000BB2766277727CB0197F908950E947909F4
:1012D0000C942C090E941E0938F00E94250920F068
:1012E000952311F00C9415090C941B0911240C94EE
:1012F00060090E943D0970F3959FC1F3950F50E07E
:10130000551F629FF001729FBB27F00DB11D639FB7
:10131000AA27F00DB11DAA1F649F6627B00DA11D5D
:10132000661F829F2227B00DA11D621F739FB00D03
:10133000A11D621F839FA00D611D221F749F332773
:10134000A00D611D231F849F600D211D822F762F0C
:101350006A2F11249F5750409AF0F1F088234AF0E9
:10136000EE0FFF1FBB1F661F771F881F9150504055
:10137000A9F79E3F510580F00C9415090C94600963
:101380005F3FE4F3983ED4F3869577956795B795DC
:10139000F795E7959F5FC1F7FE2B880F911D9695F6
:1013A000879597F90895A1E21A2EAA1BBB1BFD0190
:1013B0000DC0AA1FBB1FEE1FFF1FA217B307E40734
:1013C000F50720F0A21BB30BE40BF50B661F771F8C
:1013D000881F991F1A9469F760957095809590956C
:1013E0009B01AC01BD01CF010895EF920F931F93B4
:1013F000CF93DF93E80147FD02C034E001C034E140
:10140000042E000C550B57FF03C05195419551090F
:10141000E32E022F242FAE010E94180CCE01DF9183
:10142000CF911F910F91EF900895AEE0B0E0EBE106
:10143000FAE00C94080F0D891E8986E08C831A83CC
:1014400009838FEF9FE79E838D83AE01475E5F4FD9
:101450006F89788DCE0101960E94370AEF81F88559
:10146000E00FF11F10822E96E4E00C94240FABE005
:10147000B0E0EDE3FAE00C94FA0E6C017B018A0116
:10148000FC0117821682838181FFCCC1CE010196B7
:101490003C01F6019381F70193FD859193FF8191C2
:1014A0007F01882309F4BAC1853239F493FD85910F
:1014B00093FF81917F01853229F4B60190E00E946B
:1014C000600EE7CF912C212C312CFFE1F315D8F0E1
:1014D0008B3279F038F4803279F08332A1F4232D05
:1014E00020611DC08D3261F0803369F4232D2160AD
:1014F00016C0832D8260382EE32DE4603E2E2AC074
:10150000F32DF8601DC037FC2DC020ED280F2A30C8
:1015100040F08E32B9F436FC81C1232D2064322E86
:1015200019C036FE06C08AE0989E200D1124922E26
:1015300011C0EAE02E9E200D1124222EF32DF06220
:101540003F2E08C08C3621F4832D8068382E02C0CF
:10155000883641F4F70193FD859193FF81917F01D6
:101560008111B3CF982F9F7D9554933028F40C5F51
:101570001F4F9FE399830DC0833631F0833771F09D
:10158000833509F059C021C0F801808189830E5F3D
:101590001F4F88248394912C530113C02801F2E03B
:1015A0004F0E511CF801A080B18036FE03C0692D9A
:1015B00070E002C06FEF7FEFC5010E94550E4C0135
:1015C0008201F32DFF773F2E16C0280122E0420E44
:1015D000511CF801A080B18036FE03C0692D70E077
:1015E00002C06FEF7FEFC5010E944A0E4C01F32D40
:1015F000F0683F2E820133FC1BC0822D90E08816DC
:101600009906B0F4B60180E290E00E94600E2A9440
:10161000F4CFF50137FC859137FE81915F01B6016A
:1016200090E00E94600E21102A9421E0821A910815
:101630008114910471F7E8C0843611F0893641F5C0
:10164000F80137FE07C060817181828193810C5F50
:101650001F4F08C060817181072E000C880B990B09
:101660000E5F1F4FF32DFF763F2E97FF09C0909519
:101670008095709561957F4F8F4F9F4FF0683F2EFB
:101680002AE030E0A3010E949C0E882E861845C0F7
:10169000853731F4232D2F7EB22E2AE030E025C08D
:1016A000932D997FB92E8F36C1F018F4883579F0D3
:1016B000B5C0803719F0883721F0B0C0E92FE0615C
:1016C000BE2EB4FE0DC0FB2DF460BF2E09C034FE4B
:1016D0000AC0292F2660B22E06C028E030E005C0DF
:1016E00020E130E002C020E132E0F801B7FE07C09F
:1016F00060817181828193810C5F1F4F06C0608180
:10170000718180E090E00E5F1F4FA3010E949C0E4C
:10171000882E8618FB2DFF773F2E36FE0DC0232D19
:101720002E7FA22E891458F434FE0BC032FC09C05F
:10173000832D8E7EA82E05C0B82CA32C03C0B82CF8
:1017400001C0B92CA4FE0FC0FE01E80DF11D80817F
:10175000803321F49A2D997EA92E09C0A2FE06C0DD
:10176000B394B39404C08A2D867809F0B394A3FC93
:1017700011C0A0FE06C0B21488F4280C922C9B184D
:101780000EC0B21460F4B60180E290E00E94600ED8
:10179000B394F7CFB21418F42B1802C0982C212C54
:1017A000A4FE10C0B60180E390E00E94600EA2FE8D
:1017B00017C0A1FC03C088E790E002C088E590E074
:1017C000B6010CC08A2D867859F0A1FE02C08BE2CA
:1017D00001C080E2A7FC8DE2B60190E00E94600E9D
:1017E000891438F4B60180E390E00E94600E9A9468
:1017F000F7CF8A94F301E80DF11D8081B60190E0E6
:101800000E94600E8110F5CF222009F442CEB6016D
:1018100080E290E00E94600E2A94F6CFF601868165
:10182000978102C08FEF9FEF2B96E2E10C94160F89
:10183000A9E0B0E0EEE1FCE00C94000F6A01122F89
:10184000B02E2BE3201720F0FF24F394F00E02C0FB
:101850002CE3F22E0F2D27E0AE014F5F5F4F0E9469
:10186000720DBC014981842F8970813031F0E1FC17
:1018700006C0E0FE06C090E205C09DE203C09BE208
:1018800001C090E05E2D507143FF3CC0911102C039
:1018900083E001C084E0811718F4212F281B01C0C8
:1018A00020E051110BC0F601822F30E2882319F09D
:1018B00031938150FBCFC20ED11C20E0992329F037
:1018C000D6019C93F60131966F01C6010396E2FEA4
:1018D0000AC03EE4D6013C9341E411964C93119723
:1018E00012963C9306C03EE6F601308341E6418302
:1018F0003283FC01322F40E2332309F442C041938A
:101900003150FACF42FF44C0911102C083E001C0C0
:1019100084E0811718F4212F281B01C020E0511109
:101920000BC0F601822F30E2882319F031938150E9
:10193000FBCFC20ED11C20E0992329F0D6019C9345
:10194000F60131966F01C6010396E2FE0BC039E441
:10195000D6013C933EE411963C93119736E41296DF
:101960003C9307C039E6F60130833EE6318336E624
:101970003283FC01322F40E2332319F0419331507E
:10198000FBCFFC01E20FF11D10828EEF9FEFA6C08E
:1019900021E030E0911102C020E030E01616170679
:1019A0001CF4FB01319602C0E1E0F0E02E0F3F1F76
:1019B000BB2021F0EB2DF0E0319602C0E0E0F0E03A
:1019C0002E0F3F1FE12FF0E02E173F071CF4121BD4
:1019D000212F01C020E08E2D887159F4F601822F4D
:1019E00030E2882319F031938150FBCFC20ED11C15
:1019F00020E0992329F0D6019C93F60131966F01DE
:101A000051110BC0F601822F90E3882319F09193B6
:101A10008150FBCFC20ED11C20E00F2D060F9A8102
:101A2000342F307144FF03C0913309F40150101674
:101A300024F4093018F008E001C001E0AB0177FFA1
:101A400002C040E050E0FB01E41BF50BA1E0B0E078
:101A5000AC0FBD1FEA0FFB1F8EE2A82E4B01801AB0
:101A600091080B2D10E01195019511094F3FBFEF23
:101A70005B0721F4D601AC9211966D0164177507CE
:101A80002CF08416950614F4818101C080E3415046
:101A900051093196D60111967D014017510724F066
:101AA000D6018C936701E2CF6417750739F496333A
:101AB00020F4953319F4311101C081E3F6018083DC
:101AC000F701822F90E2882319F091938150FBCF88
:101AD000F701E20FF11D108280E090E02996ECE022
:101AE0000C941C0F283008F027E03327DA01990FF7
:101AF000311D87FD916000966105710539F43260F2
:101B00002E5F3D9330E32A95E1F708959F3F30F033
:101B100080387105610509F03C5F3C5F3D93913071
:101B200008F08068911DDF93CF931F930F93FF926E
:101B3000EF92192F987F9695E92F96959695E90F34
:101B4000FF27E255FF4F99273327EE24FF24A701F3
:101B5000E70105900894079428F4360FE71EF81E55
:101B6000491F511D660F771F881F991F0694A1F703
:101B70000590079428F4E70EF81E491F561FC11D53
:101B8000770F881F991F661F0694A1F70590079489
:101B900028F4F80E491F561FC71FD11D880F991F23
:101BA000661F771F0694A1F70590079420F4490F4C
:101BB000561FC71FD81F990F661F771F881F0694CF
:101BC000A9F784911095177041F0D695C795579550
:101BD0004795F794E7941A95C1F7E4E5F0E0689427
:101BE0001590159135916591959105907FE27395CA
:101BF000E118F10A430B560BC90BD009C0F7E10CF1
:101C0000F11E431F561FC91FD01D7EF4703311F4FF
:101C10008A95E6CFE894015030F0080F0AF40027C7
:101C2000021708F4202F2395022F7A3328F079E346
:101C30007D932A95E9F710C07D932A9589F606943D
:101C400097956795379517951794E118F10A430B07
:101C5000560BC90BD00998F023957E9173957A3372
:101C600008F070E37C932013B8F77E9170617D9348
:101C700030F0839571E37D9370E32A95E1F71124A9
:101C8000EF90FF900F911F91CF91DF91992787FDE2
:101C900090950895FC010590615070400110D8F7AF
:101CA000809590958E0F9F1F0895FC0161507040A4
:101CB00001900110D8F7809590958E0F9F1F089581
:101CC0000F931F93CF93DF93FB01238121FD03C06B
:101CD0008FEF9FEF2CC022FF16C0468157812481D1
:101CE00035814217530744F4A081B1819D012F5FD4
:101CF0003F4F318320838C93268137812F5F3F4F65
:101D00003783268314C08B01EC01FB010084F1852D
:101D1000E02D0995892BE1F6D80116968D919C91BD
:101D20001797019617969C938E931697CE01DF9185
:101D3000CF911F910F910895FA01AA27283051F1F0
:101D4000203181F1E8946F936E7F6E5F7F4F8F4FEC
:101D50009F4FAF4FB1E03ED0B4E03CD0670F781F4B
:101D6000891F9A1FA11D680F791F8A1F911DA11D30
:101D70006A0F711D811D911DA11D20D009F4689469
:101D80003F912AE0269F11243019305D3193DEF611
:101D9000CF010895462F4770405D4193B3E00FD0C7
:101DA000C9F7F6CF462F4F70405D4A3318F0495DB2
:101DB00031FD4052419302D0A9F7EACFB4E0A69595
:101DC0009795879577956795BA95C9F700976105B7
:101DD000710508959B01AC010A2E0694579547950D
:101DE00037952795BA95C9F7620F731F841F951F02
:101DF000A01D08952F923F924F925F926F927F9213
:101E00008F929F92AF92BF92CF92DF92EF92FF920A
:101E10000F931F93CF93DF93CDB7DEB7CA1BDB0BB6
:101E20000FB6F894DEBF0FBECDBF09942A8839885B
:101E300048885F846E847D848C849B84AA84B98462
:101E4000C884DF80EE80FD800C811B81AA81B9816E
:101E5000CE0FD11D0FB6F894DEBF0FBECDBFED0182
:061E60000895F894FFCF85
:101E66002A2A2A4175746F6D61746963205365650A
:101E760064696E67204D616368696E652A2A2A0D5A
:101E86000A00312D456E7465722064697374616E43
:101E96006365206265747765656E2074776F206868
:101EA6006F6C65730D0A322D456E746572206E7502
:101EB6006D626572206F662073656564730D0A0036
:101EC600332D4D65617375726520746865205465A0
:101ED6006D70657261747572652C536F696C204DF7
:101EE6006F69737475726520262068656967687402
:101EF600206F6620746865206265640D0A342D4182
:101F060075746F204D6F64650D0A352D4D616E75C4
:101F1600616C204D6F64650D0A0D0A00312D343455
:101F2600636D0D0A322D3838636D0D0A332D31334A
:101F360032636D0D0A342D313736636D0D0A352D3A
:101F4600323230636D0D0A0D0A00312D3120736572
:101F560065640D0A322D322073656564730D0A338C
:101F66002D332073656564730D0A342D3420736533
:101F76006564730D0A352D352073656564730D0A26
:101F86000D0A000D0A2A2A2A4D616E75616C204DD4
:101F96006F64652A2A2A0D0A382D4D6F766520460C
:101FA6006F72776172640D0A322D4D6F766520422D
:101FB60061636B776172640D0A362D5475726E20FB
:101FC60052696768740D0A342D5475726E204C651B
:101FD60066740D0A352D53746F700D0A302D4465E5
:101FE6006163746976617465204D616E75616C20FC
:101FF6004D6F64650D0A0D0A0057617465722050B5
:10200600756D7020416374697661746564210D0A8B
:102016000057617465722050756D70204E6F742084
:10202600416374697661746564210D0A0054656DB7
:102036007065726174757265202564B0430D0A007F
:102046004D6F76696E6720446F776E2E2E2E0D0AC1
:10205600004D6F76696E672055702E2E2E0D0A0084
:102066004D6F697374757265200048656967687499
:1020760020256420636D0D0A0D0A004D616E7561A1
:102086006C204D6F64652041637469766174656484
:10209600210D0A004D6F76696E6720466F72776173
:1020A60072642E2E2E0D0A004D6F76696E672042E1
:1020B60061636B776172642E2E2E0D0A004D6F766A
:1020C600696E672053746F70706564210D0A005441
:1020D60075726E205269676874210D0A0054757214
:1020E6006E204C656674210D0A004D616E75616C3B
:1020F600204D6F646520446561637469766174651B
:1021060064210D0A0D0A000D0A496E76616C696438
:1021160020456E747279210D0A005363726577202B
:102126006D6F76696E6720646F776E210D0A0053B6
:1021360063726577206D6F76696E67207570210D05
:102146000A0D0A00536565647320636F6D696E67D7
:10215600206F75742066726F6D2074686520636FDA
:102166006E7461696E6572210D0A00436F67207790
:102176006865656C2053746F70706564210D0A0084
:1021860044696767696E672074686520686F6C6567
:10219600210D0A004F62737461636C652064657477
:1021A6006563746564210D0A005475726E20526968
:1021B6006768742E2E2E0D0A005475726E204C65BB
:1021C60066742E2E2E0D0A004D6F76696E672053AB
:1021D600746F70706564210D0A0D0A00496E766190
:1021E6006C696420456E747279210D0A0D0A0041EE
:1021F60075746F204D6F64652041637469766174F0
:102206006564210D0A0046696C6C2074686520536C
:1022160065656420436F6E7461696E6572210D0A8F
:10222600004D65617375726520746865206865691F
:10223600676874206F662074686520626564210D86
:102246000A00456E746572206E756D626572206F48
:1022560066207365656473210D0A00456E746572A8
:102266002064697374616E63652062657477656561
:102276006E2074776F20686F6C6573210D0A0045B8
:102286006E64206F662074686520426564210D0ABD
:102296004175746F204D6F64652044656163746990
:0C22A6007661746564210D0A0D0A0000C9
:00000001FF
